S00B00004932432E737265635B
S113000029C000002FC000002DC000002BC000003C
S113001029C0000027C0000025C0000023C0000044
S113002021C000001FC000001DC000001BC0000054
S113003019C0000017C0000015C0000013C0000064
S113004011C000000FC000000DC000000BC0000074
S113005009C0000011241FBECFE5D8E0DEBFCDBF2C
S1130060B1D0DAC0CDCF811103C084EC86BF02C009
S113007084E886BF06B607FEFDCF83B1089506B6B1
S113008007FEFDCF089594E096BF82B984EC86BF45
S113009008959BB39F70282F207F922B9BBBD898E9
S11300A0D998DA9A0000DA9836E03A95F1F700C068
S11300B02BB32F7030E1839FC0011124822B8BBBA3
S11300C0DA9A0000DA9808959BB39F70282F207F56
S11300D0922B9BBBD89AD998DA9A0000DA9836E02A
S11300E03A95F1F700C02BB32F7030E1839FC00124
S11300F01124822B8BBBDA9A0000DA9808958FEFD3
S11301008ABBDA9883EF91E00197F1F700C0000011
S113011083E3BFDF91E29A95F1F7000082E3B9DF50
S113012081E28A95F1F7000088E2B3DF91E29A95C3
S1130130F1F700008EE0ADDF81E28A95F1F700006F
S113014081E0A7DF91E29A95F1F7000086E0A1DF54
S113015081E28A95F1F700000895CF93DF9300D0F0
S113016000D0CDB7DEB790E8998390EC9A8394E9F8
S11301709B8394ED9C83FE01E60FF11D81509081D9
S1130180890F87DF81E28A95F1F700000F900F90C5
S11301900F900F90DF91CF9108950F931F93CF93FA
S11301A0FC018081882351F08F01C0E08DDFCF5F97
S11301B0F801EC0FF11D80818111F8CFCF911F91CF
S11301C00F910895CF93DF93CDB7DEB760970FB645
S11301D0F894DEBF0FBECDBF80E155DF90DF89EF1D
S11301E090E00197F1F700C000007E0191E1E90E73
S11301F0F11C45DF8E010F5F1F4F81E034DFF801F2
S113020081938F01EE15FF05C1F761E081E0A5DF61
S10F0210CE010196C2DFEDCFF894FFCFC1
S9030000FC
