S01200004932435F4D61737465722E7372656389
S113000029C000003AC0000038C0000036C000001B
S113001034C0000032C0000030C000002EC0000018
S11300202CC000002AC0000028C0000026C0000028
S113003024C0000022C0000020C000001EC0000038
S11300401CC000001AC0000018C0000016C0000048
S113005014C0000011241FBECFE5D8E0DEBFCDBF21
S113006010E0A0E6B0E0E2E1F1E002C005900D92FC
S1130070A037B107D9F718D04AC0C2CF83B984E8F2
S113008086BF06B607FEFDCF089584EA86BF06B68E
S113009007FEFDCF089584EA86BF089511B887E46A
S11300A080B984E086BF0895CF93DF93CDB7DEB7E0
S11300B060970FB6F894DEBF0FBECDBFEFDF87EABF
S11300C091E60197F1F700C0000080E1E0E6F0E07E
S11300D0DE01119601900D928A95E1F77E0191E17E
S11300E0E90EF11CD2DF80E1C9DF8E010F5F1F4FE3
S11300F0F80181918F01C2DF87EA91E60197F1F758
S113010000C000000E151F0599F7C5DFEBCFF8946A
S1050110FFCF1B
S113011249324320496E697469616C697A65640085
S9030000FC
